:020000007F2956
:1000060083120313F801F9011030FC00710DF80D8D
:10001600F90D7408F8027508031C750FF902031828
:100026001B287408F80775080318750FF9070310DD
:0A003600F00DF10DFC0B0928080085
:100040000E3083120313FD00FD0B2428000008006E
:100050008316031398182E280000282883124808B6
:0400600099000800FB
:1000640083120313CB0105304B02031840284B08BD
:100074004A07840020308000CB0A35284B084A0701
:1000840084008001CB034B084A07CC000A30F400FB
:10009400F5014808F0004908F10003207808F00051
:1000A4007908F1003030F0074C08840070088000B3
:1000B4000A30F400F5014808F0004908F100032073
:1000C4007008C8007108C90000307106031D6C284F
:1000D40000307006031D6F287128CB0345280800E3
:0E00E4008312031332088A00310882000800DC
:1000F200831603139816903083129800831687177D
:10010200071383128C1E88281A08F0008228080020
:10011200831203139F01C0309F042009F00070086E
:1001220083169F051F179F1783123F08F000F00DDB
:100132007010F00D7010F00D701070089F041F14F5
:1001420020201F151F1DA7280000A3281F101E080E
:10015200F100F00183161E08F0040030F1040800DB
:10016200FF3083120313B300FF30B400FF30B50039
:10017200FF309F01C0309F042009F00070088316F1
:0C0182009F051F179F1783121F14080011
:10018E0083120313C001C1013F08F2003F08F300C0
:10019E00720884000008203A031DDA284008410442
:1001AE00031DDA28E7280130C0000030C1007208B4
:1001BE0084000008F0007308840070088000F30AC1
:1001CE007208F100F20A710884000008003A031D5B
:0801DE00CF283F08F0000800E3
:1001E60083120313C1013F0884000008C0004008C1
:1001F600003A031908294008C8002820C10A410806
:0C0206003F0784000008C000FA28080030
:1002120083120313C401C5013F08C6004008C7008A
:1002220080304006F00080307002031D1A29003031
:100232003F02031828290130C4000030C5003F08DE
:10024200003CC6004008031C013EC701C702460825
:10025200C8004708C9004108CA0032200630C2005F
:100262000030C3004308003C031D39294208003C0A
:100272000318542942084107F20001304202F000FB
:100282000030031C013E4302F10070084107840064
:100292000008F00072088400700880000130C20279
:1002A200031CC30333294108840020308000440822
:1002B200450403197229C201C3014208410784009F
:1002C2000008203A031D6929C20A0319C30A5E29DC
:1002D2000130C202031CC3034208410784002D30CF
:0402E2008000080090
:1002E60072208A110A128000840AB10A0319B20A1E
:0802F600F003031D7329080049
:1002FE00DA218030831603139F00051433309900E2
:10030E0018157920B1200230FB000430FC00BA3001
:10031E00FD00FD0B9029FC0B9029FB0B9029000092
:10032E00BF01892070088312B6007108B7007008EB
:10033E00BF007108C0003830C10009212130BF0054
:10034E00F3203830BF00C7207008BF00F3200D30F7
:10035E00C80028200A30C80028200B30FB002630A9
:10036E00FC005D30FD00FD0BBA29FC0BBA29FB0B1E
:0A037E00BA29000000009729C329E6
:1003B40020308400113083120313F000C930B100DF
:0803C4000130B20073210800B2
:020392000F3426
:1003940041346E3461346C346F34673420347634D1
:1003A40061346C347534653420343D342034003485
:02400E004A2F37
:00000001FF
