:020000001429C1
:0E000600213083120313FD00FD0B07280800B4
:06001400000000000800DE
:10001A000F3083120313FC004730FD00FD0B132839
:0A002A00FC0B132800000000080082
:1000340083120313D31B2028861221288616531BF0
:100044002528061226280616D31A2A2886112B28B4
:100054008615531A2F280611302806154C183428F3
:1000640006143528061086140A208610D3193C2855
:1000740086123D2886165319412806124228061670
:10008400D318462886114728861553184B2806117D
:100094004C2806154C1850280614512806108614AE
:1000A4000A2086104C1C58280D20592803200800CB
:0E00B400831203134B088A004A0882000800DA
:1000C200831203134C105208D3001A204C14080058
:1000D2007B28803083120313CE008E28C030CE00DE
:1000E2008E289430CE008E28D430CE008E288030D8
:1000F200CE008E28831203134E08013A03196A2890
:100102004E08023A03196F284E08033A031972285F
:100112004E08043A0319752878284F03F0004E0858
:10012200F0077008CE007008D3001A204C10D101DD
:1001320051085007840000080319A72851085007E6
:1001420084000008D2006120D10A99284C140800CA
:1001520083160313861006100611861106128612E4
:1001620083128610061086120612861106110D20C1
:100172000D200D208615061586140A2086100D20E6
:1001820086140A2086100D2086140A2086100D205F
:10019200061186140A2086100D2086140A20861065
:1001A2008611861686140A2086100D2086120615E0
:1001B20086140A208610061186140A2086100D2045
:1001C20086140A208610061586140A2086100D2031
:1001D200061186140A20861086160616861506153E
:0C01E20086140A2086100D204C14080022
:1001EE00063083120313FB001330FC00AD30FD000C
:1001FE00FD0BFF28FC0BFF28FB0BFF280000000067
:02020E000800E6
:100210005A208A110A128000840ACA0A0319CB0ADA
:08022000F003031D082908008A
:10022800A821A9200130D3001A200C30D3001A20AD
:100238000130CE000630CF004230D00069200230B5
:10024800CE000630CF003A30D00069201530FB00D0
:100258004B30FC00BE30FD00FD0B3029FC0B302973
:10026800FB0B302900000130D3001A200130CE00EA
:100278000130CF002930D00069200230CE0005308F
:10028800CF002030D00069201530FB004B30FC0037
:10029800BE30FD00FD0B4E29FC0B4E29FB0B4E29F1
:1002A8000000CD0104304D02031860291C30D30032
:1002B8001A20F720CD0A5629CD0108304D0203181F
:1002C8006B291830D3001A20F720CD0A6129CD01F7
:1002D80008304D02031876291C30D3001A20F72065
:0802E800CD0A6C296029772979
:10035000203084002A3083120313F0007D30CA005D
:080360000130CB000821080068
:1002FA0045346134733479345034493443343634B0
:02030A000034BD
:10030C006D3469346B3472346F3445346C34653409
:10031C006B34743472346F346E3469346B346134CE
:02032C0000349B
:10032E006534783461346D3470346C346534003433
:10033E004C34633464343434623469347434003489
:02400E004A2F37
:00000001FF
