:020000000328D3
:1000060083160313860183128601A201A3018030A1
:100016002306F00080307002031D132832302202BE
:1000260003182F28013086000330FC009730FD00AE
:10003600FD0B1B28FC0B1B2800000000860132303C
:10004600FC005830FD00FD0B2628FC0B262800007E
:10005600A20A0319A30A0A280B30FB002630FC006B
:100066005D30FD00FD0B3528FC0B3528FB0B3528D4
:1000760000000000A201A30180302306F0008030BA
:100086007002031D4828323022020318642801300A
:1000960086000430FC00E430FD00FD0B5028FC0B0C
:1000A6005028000086012F30FC00BF30FD00FD0BFC
:1000B6005A28FC0B5A2800000000A20A0319A30ABA
:1000C6003F280B30FB002630FC005D30FD00FD0BA9
:1000D6006A28FC0B6A28FB0B6A2800000000A201B4
:1000E600A30180302306F00080307002031D7D28B6
:1000F6003230220203189928013086000630FC00AF
:100106003030FD00FD0B8528FC0B8528000086019C
:100116002F30FC00BF30FD00FD0B8F28FC0B8F2815
:1001260000000000A20A0319A30A74280B30FB0082
:100136002630FC005D30FD00FD0B9F28FC0B9F2840
:10014600FB0B9F2800000000A201A30180302306BC
:10015600F00080307002031DB228323022020318EC
:10016600CE28013086000430FC00E430FD00FD0B93
:10017600BA28FC0BBA28000086012F30FC00BF30DD
:10018600FD00FD0BC428FC0BC42800000000A20AD9
:100196000319A30AA9280B30FB002630FC005D30AA
:1001A600FD00FD0BD428FC0BD428FB0BD428000043
:0601B60000000828DD280E
:02400E004A2F37
:00000001FF
