:02000000432893
:0E000600831203132B088A002A0882000800C8
:1000140003208A110A128000840AAA0A0319AB0A6F
:08002400F003031D0A28080087
:10002C00831603178C1C1C2800001628831203133C
:10003C002E0803178D0003132F0803178C0083164B
:10004C008C130C150B08F0008B1355308D00AA3057
:10005C008D008C14F01B34288B1335288B170C1146
:02006C0008008A
:10006E00831203132E0803178D0083168C130C14A2
:08007E0083120C08F0000800D9
:10008600C03083120313A000F930A100A430A200EF
:10009600B030A3009930A4009230A5008230A600AB
:1000A600F830A7008030A8009030A900831686019A
:1000B600FF3083128600AE01372070080313AC00B0
:1000C600AD018030F00080302D067002031D6D28D2
:1000D6002C08093C031C7B2880302D06F00080305C
:1000E6007002031D782800302C02031C7B287D2813
:1000F600AC01AD0180302D06F00080307002031D8A
:1001060086280A302C020318A4282C08203E8400D6
:1001160000088600AE012C08AF0016200230FB0056
:100126000430FC00BA30FD00FD0B9728FC0B972825
:10013600FB0B9728000083120313AC0A0319AD0AC0
:0A0146007D28AC01AD017D28A7283B
:02400E004A2F37
:00000001FF
