:020000000328D3
:1000060083160313860183128601F101F201003083
:100016007202031D10286430710203185228093039
:1000260086000230FB000430FC00BA30FD00FD0BF8
:100036001A28FC0B1A28FB0B1A2800000C30860025
:100046000230FB000430FC00BA30FD00FD0B29280D
:10005600FC0B2928FB0B29280000063086000230FD
:10006600FB000430FC00BA30FD00FD0B3828FC0B09
:100076003828FB0B38280000033086000230FB00CE
:100086000430FC00BA30FD00FD0B4728FC0B472866
:10009600FB0B47280000F10A0319F20A0A28860119
:1000A6001F30FB007130FC001E30FD00FD0B59288F
:1000B600FC0B5928FB0B59280000F101F201003016
:1000C6007202031D6828643071020318AA280330DF
:1000D60086000230FB000430FC00BA30FD00FD0B48
:1000E6007228FC0B7228FB0B722800000630860073
:1000F6000230FB000430FC00BA30FD00FD0B812805
:10010600FC0B8128FB0B812800000C308600023096
:10011600FB000430FC00BA30FD00FD0B9028FC0B00
:100126009028FB0B90280000093086000230FB0067
:100136000430FC00BA30FD00FD0B9F28FC0B9F2805
:10014600FB0B9F280000F10A0319F20A62288601B8
:100156001F30FB007130FC001E30FD00FD0BB12886
:0E016600FC0BB128FB0BB12800000828B928BB
:02400E004A2F37
:00000001FF
