:02000000AB282B
:10000600710DF80DF90D7408F8027508031C750FCB
:10001600F902F00DF10D0F30FC00710DF80DF90D20
:100026007408701C1C28F8027508031C750FF90269
:100036002128F80775080318750FF907F00DF10D5B
:10004600FC0B102870182D287408F807750803187B
:08005600750FF9070000080016
:0E005E00831203132D088A002C08820008006C
:10006C002F208A110A128000840AAC0A0319AD0AE7
:08007C00F003031D3628080003
:10008400831203137408003A031D51287508003ABB
:10009400031D5128FF30F0007F30F100AA2883129D
:1000A4000313FD01F901F801710870040319003408
:1000B40071087506FA00FA1BFD09FB01F51F672894
:1000C400F409F509F40A0319F50AF11F6E28F00979
:1000D400F109F00A0319F10A71087504FA00FA1B10
:1000E400832803207B189628FD1F0034F009F109AA
:1000F400F00A0319F10AF809F909F80A0319F90AC7
:100104000034F51F9228F11B8E287108F90070083D
:10011400F800F101F0017628F101F001F00A003451
:10012400F109F009FB0A7328F80A0319F90A74089B
:100134007802031D762875087902031D7628F901D3
:10014400F801F00A0319F10AF11F76280000FF34C0
:020154000800A1
:10015600C03083120313A000F930A100A430A2001E
:10016600B030A3009930A4009230A5008230A600DA
:10017600F830A7008030A8009030A900AA01AB0192
:10018600831686018701831287010A30F400003046
:10019600F5002A08F0002B08F10042207008AE0096
:1001A6007108AF000A30F4000030F5002A08F000AC
:1001B6002B08F10042207808F0007908F100700859
:1001C600B0007108B100B201B30180303306F0000F
:1001D60080307002031DF1281930320203181729E6
:1001E6002E08203E84000008860007141A30FC0002
:1001F600F830FD00FD0BFD28FC0BFD280000071064
:100206003008203E84000008860087141A30FC005F
:10021600F830FD00FD0B0D29FC0B0D2900008710A1
:10022600B20A0319B30AE828AA0A0319AB0A8030EE
:10023600F00080302B067002031D23292A08633C38
:0C02460003182729AA01AB01C8282829A9
:02400E004A2F37
:00000001FF
