:02000000A52D2C
:06000600000000000800EC
:0E000C00213083120313FD00FD0B0A280800AB
:10001A000F3083120313FC004730FD00FD0B132839
:0A002A00FC0B132800000000080082
:10003400FB14FB1F2428FF30F300F200F100F00052
:08004400FA0DF20CFF30080078
:0E004C00F201F101F001F801F30100300800AB
:10005A007B15FB1F37280130F300F201F101F00193
:08006A00FA0DF20CFF30080052
:08007200FA1FF2130030080030
:10007A0083120313D81B4328861244288616581B5A
:10008A004828061249280616D81A4D2886114E28DD
:10009A008615581A52280611532806154218572849
:1000AA00061458280610861403208610D8195F28CB
:1000BA0086126028861658196428061265280616BC
:1000CA00D818692886116A28861558186E280611C4
:1000DA006F28061542187328061474280610861409
:1000EA0003208610421C7B280D207C28062008004D
:1000FA00A0017208031D92287108F2007008F1002D
:10010A00F001A0157208031D92287108F200F1018E
:10011A00A011201672080319A0282008F302031D53
:10012A00031CA4280310F21BA828F00DF10DF20DF0
:10013A00F30B9828A4280130FC002620AB280230B3
:0E014A00FC002D20AB280430FC0039200800FA
:100158000E3083120313FD00FD0BB02800000800C9
:0E0168008312031344088A0043088200080033
:06017600FB15FF3008003C
:10017C00831203135608F2007208F100F20A5708B2
:10018C00F000D70A700884000008F00071088400A1
:10019C00700880007108840000080319D628C22852
:0601AC005608F0000800F7
:1001B20083120313FA017308031D7A147708031DCF
:1001C200FA147A0803192529033A0319F0287A1830
:1001D200ED28F61F23292129F21F2129232972083C
:1001E2008039FA00F21376088039F6137A06031979
:1001F200FE287A0803192129232977087302031993
:100202000529031C19291D297608720203190C29D4
:10021200031C19291D297508710203191329031CCE
:1002220019291D29740870020319252903181D298B
:10023200FA08031923292129FA0803192129232954
:100242000314080003100800031403150800080033
:1002520083120313FB017308031D77080319802916
:1002620072087606FA007708F3077E30031C3D29F0
:10027200F302031883294029F302031C862972081A
:10028200F8007108FC007008FD00F817F61703105B
:10029200F201F101F0011830A0007D1C5A29740806
:1002A200F00775080318750FF10776080318760F23
:1002B200F207F20CF10CF00CF80CFC0CFD0C031024
:1002C200A00B4E29F21B6A29F80DF00DF10DF20D6B
:1002D200F3037B1B701C7C29F81F7C29F00A03198D
:1002E200F10A0319F20A031D7C29F20CF10CF00C3D
:1002F200F30A03198329FA1FF21300308829013007
:100302002620882902301A20882904302D20000056
:020312000800E1
:1003140083120313FD01F8017008031900347406F5
:10032400FA00FA1BFD09FB01F41F9A29F409F40AE7
:10033400F01F9E29F009F00A70087404FA00FA1BF1
:10034400C2297408F802F00D700DF80D7408F8074E
:10035400F00D0630FC00700DF80D74087018F802EA
:10036400701CF807F00DFC0BAD29701CF8077B1806
:10037400D029FD1F0034F009F00AF809F80A003406
:10038400F41FCD29F01BCA297008F800F001BB291D
:10039400F001F00A0034F009FB0AA329F80A7408F2
:1003A4007802031DBB29F801F00AF01FBB29FF34B2
:0203B40008003F
:1003B6008312031342105608D8003D204214080049
:1003C600F529803083120313C900082AC030C900FA
:1003D600082A9430C900082AD430C900082A803077
:1003E600C900082A831203134908013A0319E429AC
:1003F6004908023A0319E9294908033A0319EC297D
:100406004908043A0319EF29F2294A03F00049087A
:10041600F0077008C9007008D8003D204210CC01D2
:100426004C084B07840000080319212A4C084B0787
:1004360084000008D600DB21CC0A132A42140800E7
:10044600831203137408003A031D3E2A7508003A06
:10045600031D3E2A7608003A031D3E2A7708003A15
:10046600031D3E2AFF30F000FF30F1007F30F2001E
:10047600FF30F300D92A8312031377080319CD2A14
:1004860073080319D02A720876068039FA00F21723
:10049600F617A0017208F8007108FC007008FD004C
:1004A6007408FD027508031C750FFC027608031C10
:1004B600760FF802F801FC01FD01031C692A0310FE
:1004C600F20CF10CF00CF80C0130A0007708F302E6
:1004D600031C732A7E302007F3070318D32A782AD1
:1004E6007E302007F307031CD62A1830FA07FD0DC5
:1004F600FC0DF80DF00DF10DF20DA00D7408F002D3
:100506007508031C750FF1027608031C760FF202BC
:10051600760DA004201C912A7D149C2A7408F007ED
:1005260075080318750FF10776080318760AF2079F
:100536007D10FA031F307A05031D7A2A7B1B7D1C6A
:10054600C32A0310F00DF10DF20DA00D7408F00290
:100556007508031C750FF1027608031C760FF2026C
:10056600760D20040139FD070318FC0A0319F80A61
:10057600031DC32AF80CFC0CFD0CF30A0319D32A3D
:10058600FA1FF8137808F2007C08F1007D08F000E5
:100596000030D82A0130BB20D82A02302620D82A9B
:0E05A60004301A20D82A08302D20000008004A
:1005B40083120313D401D5014908D0004A08D1009D
:1005C4004B08D2004C08D3005308FF3A031DF42A09
:1005D4005208FF3A031DF42A5108FF3A031DF42A76
:1005E4005008FF3A031DFE2A4D08D6002330D700D9
:1005F400BE200330F000D72C0130CE00D21F0D2BCB
:1006040080305206F0007008D200CE0A4D088400F3
:100614002D308000CD0A0030F0005306031D1C2B42
:1006240070085206031D1C2B70085106031D1C2B59
:100634005008003A031D252B4D08D6002130D70061
:10064400BE20F001D72C5308FF3A031D332B520868
:10065400003A031D332B5108003A031D332B500875
:10066400003A031D3D2B4D08D6002730D700BE208D
:100674004E08F000D72C0030F4000030F5000030B4
:10068400F6007F30F7005008F0005108F1005208DE
:10069400F2005308F300D920013003180030F000B1
:1006A40070080319702B5008F0005108F10052082B
:1006B400F2005308F3000030F4000030F50020305D
:1006C400F6008230F70029217008D0007108D100AB
:1006D4007208D2007308D300D5033D2B0030F40018
:1006E4000030F5002030F6008230F7005008F000AA
:1006F4005108F1005208F2005308F300D9200130E8
:10070400031C0030F00070080319A32B5008F000FC
:100714005108F1005208F2005308F300CD30F40000
:10072400CC30F5004C30F6007B30F70029217008FE
:10073400D0007108D1007208D2007308D300D50A22
:10074400702BFF305005F800FF305105F9007F3061
:100754005205FA0000305305FB007808F4007908CC
:10076400F5007A08F6007B08F700F40DF50DF60D98
:10077400F70D741000305005F00000305105F10001
:1007840000305205F200FF305305F3007008D0002A
:100794007108D1007208D2007308D30074085004A1
:1007A400F00075085104F10076085204F20077084D
:1007B4005304F3007008D0007108D1007208D2000D
:1007C4007308D3007F305302F0007008CF0001306B
:1007D400D3007008F4005008F0005108F1005208EA
:1007E400F2005308F30074080319FF2BF00DF10D08
:1007F400F20DF30D7010FF3EF62B7008D000710857
:10080400D1007208D2007308D3005308303EF000C0
:100814004D08840070088000CD0A80305506F00031
:100824008030013A7002031C202C8030063AF0001C
:10083400803055067002031C202C272C4D088400A0
:100844002E308000CD0A0130D4000630CF004F088E
:10085400003A0319852CD3015008F0005108F10027
:100864005208F2005308F300F00DF10DF20DF30DF0
:100874007010F00DF10DF20DF30D70105008F0072B
:1008840051080318510FF10752080318520FF207C9
:1008940053080318530FF3077008D0007108D100F0
:1008A4007208D2007308D3005008F0005108F10018
:1008B4005208F2005308F300F00DF10DF20DF30DA0
:1008C40070107008D0007108D1007208D20073084B
:1008D400D3005308303EF0004D08840070088000B7
:1008E400CD0A5408003A031D832CD5035508003A59
:1008F400031D832C4D0884002E308000CD0A013066
:10090400D400CF03292CFF304D0784000008303A6F
:10091400031D8E2CCD03852CFF304D078400000869
:100924002E3A031D962CCD035508003A0319D32CF7
:100934004D08840065308000CD0A80305506F000F3
:100944008030003A70020318AF2C4D0884002D301B
:100954008000CD0A5508003CD5005508CF008030F2
:10096400093AF0008030550670020318C52C0A308D
:10097400F4004F08F0008A213030F0074D0884005D
:1009840070088000CD0A0A30F4004F08F0008A2174
:100994007808F0003030F0074D08840070088000BB
:0C09A400CD0A4D0884008001F00108001D
:1009B000831203137008F8007108F000F101F201CE
:1009C000F301FB01FC019630F300FA017008F1001D
:0C09D0007808F000F801F2017D2008001A
:1009DC00B4208A110A128000840AC30A0319C40ABB
:0809EC00F003031DEE2C0800CE
:1009F400831203139F01C0309F042B09F000700879
:100A040083169F051F179F1783124908F000F00DE6
:100A14007010F00D7010F00D701070089F041F140A
:100A2400AC201F151F1D182D0000142D1F101E08AB
:100A3400F100F00183161E08F0040030F1040800F0
:100A440083160313861006100611861106128612E9
:100A540083128610061086120612861106110D20C6
:100A64000D200D20861506158614032086100D20F2
:100A74008614032086100D208614032086100D2072
:100A840006118614032086100D2086140320861078
:100A9400861186168614032086100D2086120615EC
:100AA40086140320861006118614032086100D2058
:100AB40086140320861006158614032086100D2044
:100AC400061186140320861086160616861506154A
:0C0AD4008614032086100D204214080038
:100AE000822D803083120313C900952DC030C900B8
:100AF000952D9430C900952DD430C900952D8030A6
:100B0000C900952D831203134908013A0319712D69
:100B10004908023A0319762D4908033A0319792D39
:100B20004908043A03197C2D7F2D4A03F000490837
:100B3000F0077008C90042147008D8003D20421028
:0A0B40004B08D8003D2042140800C5
:100B4A002226831603138601FF30850080309F001A
:100B5A0022250130D8003D200C30D8003D20C901A3
:100B6A00FA24D824F630F4002830F5001C30F600B8
:100B7A008130F70029210030F4000030F5002030E0
:100B8A00F6008230F70023227008C5007108C600FB
:100B9A007208C7007308C8000130C9000130CA00D2
:100BAA003C30CB00E3214508C9004608CA00470883
:100BBA00CB004808CC002C30CD00DA220130C90025
:100BCA000630CA002C30CB00E3210130C9000F30B7
:100BDA00CA00DF30CB0070250130C9001030CA00CE
:0A0BEA002030CB007025B42DF92D4A
:100C440021308400213083120313F000FF30C300ED
:080C54000530C400EE24080085
:040BFE00303400345B
:080C02004E3461344E3400341D
:080C0A0049344E344634003435
:020C12000F349D
:100C14000034003400340034003400340034003430
:100C24000034003400340034003400340034003420
:0C0C3400543465346D3470343D340034A9
:040C40004334003405
:02400E004A2F37
:00000001FF
