:02000000E82DE9
:06000600000000000800EC
:0E000C00213083120313FD00FD0B0A280800AB
:10001A000F3083120313FC004730FD00FD0B132839
:0A002A00FC0B132800000000080082
:0E003400F201F101F001F801F30100300800C3
:10004200FB14FB1F2B28FF30F300F200F100F0003D
:08005200FA0DF20CFF3008006A
:10005A0083160313BE1B3428831286123628831292
:10006A00861683163E1B3C28831206123E288312EC
:10007A0006168316BE1A442883128611462883124E
:10008A00861583163E1A4C28831206114E288312AF
:10009A0006156418522806145328061086140320DD
:1000AA0086108316BE195C28831286125E28831274
:1000BA00861683163E19642883120612662883124E
:1000CA0006168316BE186C28831286116E288312B0
:1000DA00861583163E187428831206117628831211
:1000EA00061564187A2806147B280610861403203D
:0E00FA008610641C82280D2083280620080032
:100108007B15FB1F8E280130F300F201F101F0018D
:08011800FA0DF20CFF300800A3
:08012000FA1FF2130030080081
:1001280083120313FD01F8017008031900347406E3
:10013800FA00FA1BFD09FB01F41FA428F409F40ACC
:10014800F01FA828F009F00A70087404FA00FA1BD6
:10015800CC287408F802F00D700DF80D7408F80733
:10016800F00D0630FC00700DF80D74087018F802D8
:10017800701CF807F00DFC0BB728701CF8077B18EB
:10018800DA28FD1F0034F009F00AF809F80A0034EB
:10019800F41FD728F01BD4287008F800F001C528F0
:1001A800F001F00A0034F009FB0AAD28F80A7408D7
:1001B8007802031DC528F801F00AF01FC528FF348E
:0201C80008002D
:1001CA000E3083120313FD00FD0BE928000008001E
:1001DA0083120313FB017308031D770803194429CB
:1001EA0072087606FA007708F3077E30031C0129A5
:1001FA00F302031847290429F302031C4A29720847
:10020A00F8007108FC007008FD00F817F6170310D3
:10021A00F201F101F0011830A0007D1C1E297408BA
:10022A00F00775080318750FF10776080318760F9B
:10023A00F207F20CF10CF00CF80CFC0CFD0C03109C
:10024A00A00B1229F21B2E29F80DF00DF10DF20D5B
:10025A00F3037B1B701C4029F81F4029F00A03197D
:10026A00F10A0319F20A031D4029F20CF10CF00CF1
:10027A00F30A03194729FA1FF21300304C290130F7
:10028A001A204C29023021204C29043084200000F5
:02029A0008005A
:10029C0083120313641083163C08BE002D206414D3
:0202AC00080048
:1002AE00831603133C08F2007208F100F20A3D08AF
:1002BE00F000BD0A700884000008F0007108840088
:1002CE007008800071088400000803196F295B29EB
:0602DE003C08F0000800DE
:1002E400A0017208031D87297108F2007008F1004B
:1002F400F001A0157208031D87297108F200F101AD
:10030400A01120167208031995292008F302031D71
:10031400031C99290310F21B9D29F00DF10DF20D18
:10032400F30B8D2999290130FC001A20A0290230F1
:0E033400FC008420A0290430FC00902008006A
:06034200FB15FF3008006E
:0E0348008312031360088A005F088200080019
:1003560083120313FA017308031D7A147708031D29
:10036600FA147A080319F729033A0319C2297A18E5
:10037600BF29F61FF529F329F21FF329F52972087B
:100386008039FA00F21376088039F6137A060319D3
:10039600D0297A080319F329F52977087302031976
:1003A600D729031CEB29EF29760872020319DE29E7
:1003B600031CEB29EF29750871020319E529031CB3
:1003C600EB29EF29740870020319F7290318EF299E
:1003D600FA080319F529F329FA080319F329F52967
:1003E600031408000310080003140315080008008E
:1003F600831203137408003A031D162A7508003A7F
:10040600031D162A7608003A031D162A7708003AB5
:10041600031D162AFF30F000FF30F1007F30F20096
:10042600FF30F300B12A8312031377080319A52AB4
:1004360073080319A82A720876068039FA00F2179B
:10044600F617A0017208F8007108FC007008FD009C
:100456007408FD027508031C750FFC027608031C60
:10046600760FF802F801FC01FD01031C412A031076
:10047600F20CF10CF00CF80C0130A0007708F30236
:10048600031C4B2A7E302007F3070318AB2A502A99
:100496007E302007F307031CAE2A1830FA07FD0D3D
:1004A600FC0DF80DF00DF10DF20DA00D7408F00223
:1004B6007508031C750FF1027608031C760FF2020D
:1004C600760DA004201C692A7D14742A7408F0078E
:1004D60075080318750FF10776080318760AF207F0
:1004E6007D10FA031F307A05031D522A7B1B7D1CE3
:1004F6009B2A0310F00DF10DF20DA00D7408F00209
:100506007508031C750FF1027608031C760FF202BC
:10051600760D20040139FD070318FC0A0319F80AB1
:10052600031D9B2AF80CFC0CFD0CF30A0319AB2ADD
:10053600FA1FF8137808F2007C08F1007D08F00035
:100546000030B02A0130A121B02A02301A20B02A88
:0E05560004302120B02A083084200000080064
:10056400C42A803083160313B000D72AC030B000E9
:10057400D72A9430B000D72AD430B000D72A80309C
:10058400B000D72A831603133008013A0319B32A9B
:100594003008023A0319B82A3008033A0319BB2A6F
:1005A4003008043A0319BE2AC12A3103F000300886
:1005B400F0077008B0008312641470088316BE003C
:1005C4002D20641083163208BE002D206414080008
:1005D400831203137008F8007108F000F101F201AE
:1005E400F301FB01FC019630F300FA017008F100FD
:0C05F4007808F000F801F2017221080004
:10060000831203139F01C0309F043809F000700863
:1006100083169F051F179F1783126F08F000F00DB8
:100620007010F00D7010F00D701070089F041F1402
:10063000E5201F151F1D1E2B00001A2B1F101E0862
:10064000F100F00183161E08F0040030F1040800E8
:1006500083160313BA01BB013008B6003108B70096
:100660003208B8003308B9003908FF3A031D422B9D
:100670003808FF3A031D422B3708FF3A031D422B6F
:100680003608FF3A031D4C2B3408BC005130BD0026
:1006900057210330F000332D01308312EF00831611
:1006A000B81F5F2B80303806F0007008B800831246
:1006B000EF0A8316340884002D308000B40A00301D
:1006C000F0003906031D6E2B70083806031D6E2BD3
:1006D00070083706031D6E2B3608003A031D772B72
:1006E0003408BC005530BD005721F001332D3908C6
:1006F000FF3A031D852B3808003A031D852B370868
:10070000003A031D852B3608003A031D902B340850
:10071000BC004D30BD00572183126F08F000332D0F
:100720000030F4000030F5000030F6007F30F700B4
:1007300083163608F0003708F1003808F20039084F
:10074000F300AB21013003180030F00070080319EA
:10075000C62B83163608F0003708F1003808F2007F
:100760003908F3000030F4000030F5002030F600C6
:100770008230F700ED2070088316B6007108B700CC
:100780007208B8007308B900BB03902B83160030C1
:10079000F4000030F5002030F6008230F700360813
:1007A000F0003708F1003808F2003908F300AB21F7
:1007B0000130031C0030F00070080319FC2B831675
:1007C0003608F0003708F1003808F2003908F30065
:1007D000CD30F400CC30F5004C30F6007B30F70023
:1007E000ED2070088316B6007108B7007208B800D3
:1007F0007308B900BB0AC62B8316FF303605F80014
:10080000FF303705F9007F303805FA000030390530
:10081000FB007808F4007908F5007A08F6007B08F8
:10082000F700F40DF50DF60DF70D741000303605D8
:10083000F00000303705F10000303805F200FF30DD
:100840003905F3007008B6007108B7007208B800E7
:100850007308B90074083604F00075083704F10015
:1008600076083804F20077083904F3007008B600FF
:100870007108B7007208B8007308B9007F303902F8
:10088000F0007008B5000130B9007008F4003608B7
:10089000F0003708F1003808F2003908F300740856
:1008A0000319592CF00DF10DF20DF30D7010FF3EF0
:1008B000502C7008B6007108B7007208B8007308B1
:1008C000B9003908303EF000340884007008800018
:1008D000B40A80303B06F0008030013A7002031CFD
:1008E0007A2C8030063AF00080303B067002031C00
:1008F0007A2C812C340884002E308000B40A013018
:10090000BA000630B5003508003A0319DF2CB901EA
:100910003608F0003708F1003808F2003908F30013
:10092000F00DF10DF20DF30D7010F00DF10DF20D53
:10093000F30D70103608F00737080318370FF1076A
:1009400038080318380FF20739080318390FF3076E
:100950007008B6007108B7007208B8007308B900D3
:100960003608F0003708F1003808F2003908F300C3
:10097000F00DF10DF20DF30D70107008B600710856
:10098000B7007208B8007308B9003908303EF000AB
:100990003408840070088000B40A3A08003A031D45
:1009A000DD2CBB033B08003A031DDD2C340884001A
:1009B0002E308000B40A0130BA00B503832CFF301A
:1009C000340784000008303A031DE82CB403DF2C00
:1009D000FF303407840000082E3A031DF02CB403C6
:1009E0003B08003A03192F2D34088400653080003D
:1009F000B40A80303B06F0008030003A70020318E1
:100A0000092D340884002D308000B40A3B08003CD6
:100A1000BB003B08B5008030093AF00080303B064F
:100A200070020318202D0A30F4003508F0009420DD
:100A30003030F00783163408840070088000B40A50
:100A40000A30F4003508F00094207808F0003030C7
:100A5000F00783163408840070088000B40A340854
:080A600084008001F001080090
:100A680083160313861006100611861106128612C5
:100A780083128610061086120612861106110D20A2
:100A88000D200D20861506158614032086100D20CE
:100A98008614032086100D208614032086100D204E
:100AA80006118614032086100D2086140320861054
:100AB800861186168614032086100D2086120615C8
:100AC80086140320861006118614032086100D2034
:100AD80086140320861006158614032086100D2020
:100AE8000611861403208610861606168615061526
:0C0AF8008614032086100D2064140800F2
:100B0400A4218A110A128000840ADF0A0319E00A68
:080B1400F003031D822D08000F
:100B1C00FF3083120313E100FF30E200FF30E300EB
:100B2C00FF309F01C0309F043809F0007008831615
:0C0B3C009F051F179F1783121F1408004D
:100B4800B62D803083160313B000C92DC030B00015
:100B5800C92D9430B000C92DD430B000C92D8030D3
:100B6800B000C92D831603133008013A0319A52DC7
:100B78003008023A0319AA2D3008033A0319AD2D9B
:100B88003008043A0319B02DB32D3103F0003008B2
:100B9800F0077008B0007008BE002D206410EF0147
:100BA8006F0883163207840000080319E52D8312A5
:100BB8006F088316320784000008BC004E21EF0A34
:080BC800D42D8312641408000F
:100BD000FA2601308316031385008601870107304A
:100BE0008800831286018701803083169F008E253E
:100BF000342501308316BE002D200C308316BE0034
:100C00002D2001308316B0000130B1002130B20038
:100C1000A42502308316B0000130B1002D30B2009F
:100C2000A4251530FB004B30FC00BE30FD00FD0B51
:100C3000172EFC0B172EFB0B172E0000013083160E
:100C4000BE002D20EF01002370088312E900710817
:100C5000EA00EA22F630F4002830F5001C30F600F5
:100C60008130F700ED207008E5007108E600720899
:100C7000E7007308E8000030F4000030F500203091
:100C8000F6008230F700FB217008EB007108EC00E1
:100C90007208ED007308EE0001308316B0000130D9
:100CA000B1005730B200A4256B088316B000831240
:100CB0006C088316B10083126D088316B20083128C
:100CC0006E088316B300A030B400282301308316C9
:100CD0000313B0000830B100A030B200A4250130E9
:100CE0008316B0000E30B100DF30B200B2224330C4
:100CF0008316BC004E210030F4000030F500703047
:100D0000F6008330F7006B08F0006C08F1006D0806
:100D1000F2006E08F300AB210130031C0030F0003C
:100D2000700803199D2E071402308316B00001309D
:100D3000B1003930B200A425A62E07100230831668
:100D4000B0000130B1004330B200A4250630FB00F2
:100D50001330FC00AD30FD00FD0BAC2EFC0BAC2EB7
:0C0D6000FB0BAC2E00000000222EB52E74
:100DF400213084003E3083120313F000BB30DF0047
:080E04000630E0008225080021
:100D7600543465346D34703465347234613474348B
:080D8600753472346534003449
:100D8E004D346F346E34693474346F347234693464
:060D9E006E3467340034DE
:020DA4000F340A
:100DA600463441344E3420343A3420344F344E34B1
:040DB60020340034B1
:100DBA00463441344E3420343A3420344F344634A5
:040DCA004634003477
:080DCE0049344E344634003470
:080DD6004E3461344E34003448
:040DDE003034003479
:100DE200543465346D34703420343D34203400344E
:02400E004A2F37
:00000001FF
