:020000000329D2
:0E000600213083120313FD00FD0B07280800B4
:100014000F3083120313FC004730FD00FD0B102842
:0A002400FC0B10280000000008008B
:06002E00000000000800C4
:1000340083120313E31B2028861221288616631BD0
:100044002528061226280616E31A2A2886112B28A4
:100054008615631A2F280611302806155D183428D2
:10006400061435280610861417208610E3193C2838
:1000740086123D2886166319412806124228061660
:10008400E318462886114728861563184B2806115D
:100094004C2806155D18502806145128061086149D
:1000A400172086105D1C58280A20592803200800B0
:0E00B400831203135C088A005B0882000800B8
:1000C200831203135D106208E3001A205D14080016
:1000D2008316031386100610061186110612861265
:1000E20083128610061086120612861106110A2045
:1000F2000A200A20861506158614172086100A2063
:100102008614172086100A208614172086100A20CB
:1001120006118614172086100A20861417208610CE
:10012200861186168614172086100A208612061556
:1001320086141720861006118614172086100A20AE
:1001420086141720861006158614172086100A209A
:1001520006118614172086108616061686150615B1
:0C0162008614172086100A205D14080087
:10016E00C928803083120313DE00DC28C030DE0085
:10017E00DC289430DE00DC28D430DE00DC28803031
:10018E00DE00DC28831203135E08013A0319B82837
:10019E005E08023A0319BD285E08033A0319C02807
:1001AE005E08043A0319C328C6285F03F0005E08F0
:1001BE00F0077008DE007008E3001A205D10E10100
:1001CE0061086007840000080319F52861086007BC
:1001DE0084000008E2006120E10AE7285D140800AF
:1001EE005A208A110A128000840ADB0A0319DC0ADB
:0801FE00F003031DF7280800BF
:10020600B22169200130E3001A200C30E3001A20E5
:100216008316870183120714871007110530FB0028
:100226000F30FC00F130FD00FD0B1729FC0B1729E0
:10023600FB0B1729FF3083168800831208108810DD
:100246000811081C3E290130E3001A200C30E30097
:100256001A200714871007150130DE000430DF006E
:100266004A30E000B7200230DE000430DF002930DB
:10027600E000B7206F29881C58290130E3001A20B6
:100286000C30E3001A200710871407150130DE0032
:100296000430DF002030E000B7200230DE000430FA
:1002A600DF004030E000B7206F29081D6F290130BC
:1002B600E3001A200C30E3001A2007110130DE009B
:1002C6000430DF003730E000B7200230DE000430B3
:0C02D600DF005330E000B720242970291D
:10036400203084003B3083120313F0007630DB002E
:080374000130DC00F720080055
:1002EC0062347534743474346F346E342034323474
:0202FC000034CC
:1002FE004D346F3474346F347234203446346F346A
:0C030E007234773461347234643400348B
:10031A0062347534743474346F346E342034333444
:02032A0000349D
:10032C006D3474346F347234203462346134633419
:04033C006B340034EA
:1003400042347534743474346F346E342034313440
:02035000003477
:10035200733474346F3470347034653464340034FC
:02400E004A2F37
:00000001FF
