:02000000B42822
:1000060083120313F801F9011030FC00710DF80D8D
:10001600F90D7408F8027508031C750FF902031828
:100026001B287408F80775080318750FF9070310DD
:0A003600F00DF10DFC0B0928080085
:0E004000831203132D088A002C08820008008A
:10004E0020208A110A128000840AAC0A0319AD0A14
:08005E00F003031D2728080030
:10006600E83083120313F4000330F5002E08F00085
:100076002F08F1000320013085007008203E84001F
:10008600000886000D30FC00FB30FD00FD0B492802
:10009600FC0B4928000000006430F4000030F50035
:1000A6002E08F0002F08F10003200A30F40000307B
:1000B600F50003207808F0007908F1000230850089
:1000C6007008203E8400000886000D30FC00FB30DE
:1000D600FD00FD0B6C28FC0B6C28000000000A30AC
:1000E600F4000030F5002E08F0002F08F100032080
:1000F6000A30F4000030F50003207808F000790893
:10010600F100043085007008203E84000008860057
:100116000D30FC00FB30FD00FD0B8F28FC0B8F28FB
:10012600000000000A30F4000030F5002E08F00050
:100136002F08F10003207808F0007908F100083054
:1001460085007008203E8400000886000D30FC0003
:10015600FB30FD00FD0BAD28FC0BAD2800000000B8
:0201660008008F
:100168003F3083120313A0000630A1005B30A200C9
:100178004F30A3006630A4006D30A5007D30A60086
:100188000730A7007F30A8006F30A900D230AA003E
:100198000430AB00073083169F0086018501831267
:0E01A8002A08AE002B08AF003320D328DA2837
:02400E004A2F37
:00000001FF
