:020000000328D3
:1000060083160313860183128601033086000630A9
:10001600FB001330FC00AD30FD00FD0B1028FC0B7F
:100026001028FB0B10280000000006308600063062
:10003600FB001330FC00AD30FD00FD0B2028FC0B4F
:100046002028FB0B2028000000000C30860006301C
:10005600FB001330FC00AD30FD00FD0B3028FC0B1F
:100066003028FB0B302800000000093086000630DF
:10007600FB001330FC00AD30FD00FD0B4028FC0BEF
:0E0086004028FB0B40280000000008284928F5
:02400E004A2F37
:00000001FF
